:020000040800F2
:10000000A0150020D5000008FD440008193900089B
:1000100000000000000000000000000000000000E0
:10002000000000000000000000000000914A0008ED
:100030000000000000000000B1480008934A0008DA
:10004000E7000008E7000008E7000008E7000008F4
:10005000E7000008E7000008E700000801100008BA
:1000600000000000390F0008490F0008E7000008F1
:10007000A50A0008E7000008E7000008E7000008FC
:10008000194B0008E7000008E7000008E700000837
:1000900000000000E7000008094B0008E700000826
:1000A0001D390008E7000008E7000008E700000825
:1000B000E7000008E7000008000000000000000062
:1000C0000348854600F0B0FC00480047115F000877
:1000D000A01500200448804704480047FEE7FEE7DB
:1000E000FEE7FEE7FEE7FEE7054B0008C10000085B
:1000F00030B50B46014600202022012409E00D46C0
:10010000D5409D4205D31D469540491B2546954047
:1001100040191546521E002DF1DC30BD70B500248B
:100120002546002801DA01244042002901DA012590
:100130004942FFF7DDFFAC4200D04042002C00D026
:10014000494270BDF0B51FB40646002082B0054696
:100150004024019100901BE0019922460F46304651
:1001600000F06AFB049A059B801A994110D310464F
:100170001946224600F050FB361A8F41019722465D
:1001800001200021009F00F047FB38184D410090EE
:100190002046641E0028DFDC019B00982946324679
:1001A00007B0F0BD03460B439B0703D009E008C925
:1001B000121F08C0042AFAD203E00B780370401C17
:1001C000491C521EF9D27047D2B201E00270401CA5
:1001D000491EFBD270470022F6E710B513460A46C7
:1001E00004461946FFF7F0FF204610BDF8B5024659
:1001F0004A40D40F42004B0052085B089A4202D298
:100200000246084611464A0023D0C30D4A00DDB21B
:10021000120EAD1A202D35DA49020126490AF605DB
:100220008A19002C00D0524220214F1B1146B940A0
:100230002A411018C20D9A4221D0002C17D0012D4E
:1002400008DCDA05801AD20F8019D207DBB200F081
:100250001FFBF8BDDA05801A012340001B06C018F9
:1002600080185A428018CA0F1043490007E0490815
:10027000C2071143DA05801A80194008801800F07F
:10028000FFFAF8BD61000122511A001BF7E70122B5
:10029000D2075140AAE70122D2075040A6E7024602
:1002A00070B54A40D30FDB0740002DD04A002AD05A
:1002B000010E140E000212020919400A520A841893
:1002C000E50104465443000A120A2E045043A419BF
:1002D0004219200CC543AA18120C0125AD03521C6B
:1002E000521912047F39240400D0521C104301D447
:1002F0004000491EC2B20C06C0092018401C40082C
:10030000802A02D003E0002070BD40084000002990
:1003100000DA0020184370BD70B502464A40D50F80
:1003200040004A00ED0740085208002814D0002A77
:1003300012D0C40DD30D41020120C0055202490A5A
:10034000520AE41A091812187D34914201D3641C30
:1003500000E04900002C01DA002070BD002391422A
:1003600001D3891A0343400849000028F7D1002926
:100370000AD0914202D10121C90705E0914201D280
:10038000012101E00121C943E005C018401900F036
:1003900077FA70BDF0B507460846584087B0C00FE1
:1003A000049048000E46590040084908BC1A88418C
:1003B00005D2384631461E4617460B4602465800BF
:1003C000400810434CD0300D039040055900400DBB
:1003D000490D0590401A0290402872DA1803012155
:1003E000000B09050843019004980092002805D0ED
:1003F00001995242002088410092019002984021C8
:100400000A1A0199009800F007FA05460C466B4657
:1004100007CB00F022FAC0197141039A0E0D002398
:10042000D71756401A467A40164344D0049A002AF9
:100430002DD0029A012A039A15DC1205C01A9141A7
:1004400001263605001C7141D20F059ED20700938C
:10045000019202962A46234600F060FA07B0F0BDEA
:1004600038463146FAE71605224A0F46B218C01A36
:10047000B74101210905001C4F4100187F41114679
:1004800018187941E20F10436D19644113E0E20737
:100490006D0815436408C2071443039A0126120528
:1004A000C01A91413605001C7141CE074008304307
:1004B0004908C01851412A46234600F022FACDE7E8
:1004C000FFE7049801224000C117121A00238B4154
:1004D00004983146C417381AA141EEE730B401241C
:1004E000E407634030BC55E730B40124E4076140C1
:1004F00030BC4FE70000E0FFF0B51FB488B00B99A7
:100500000998002448400999C00F490049080991F9
:10051000C0070B990090490049080B910999089868
:10052000A64608431CD00B990A98084318D009988E
:1005300001244000420D4800410D099824050003A4
:10054000000B204309900B980003000B20430B90F5
:1005500050181C494018002201901446104605E02E
:10056000002001460DB0F0BD032801DA034600E08B
:1005700003239C46C11A0AAE0AE05F0008ADED5B9A
:100580004F00F75B7D430027AA187C41491C5B1E86
:100590006145F2DD410004AB5A522104120C0A43BA
:1005A000240C401C0828DFDB01980290009970465B
:1005B00001910090059B049A0799069800F0AEF906
:1005C000D0E700000DFCFFFFF0B50C465C4085B0A5
:1005D000E40FE40703944C00002664085900944695
:1005E000490802460296224321D062460A431ED0A1
:1005F0006200570D4A000E032303550D01240246E5
:100600002C492405781B1B0B360B4018234326432B
:10061000614600901C46501AB44103D30098401C18
:10062000009002E0921800985B41002803DA002055
:10063000014605B0F0BD00200121090507468646A8
:1006400011E064461D46141BB54106D36546521B96
:10065000B341744607430C43A646CD0740084908FA
:10066000284392185B4105460D43EAD110461843D2
:1006700013D06046194650407140084306D060468A
:10068000101AB34106D20122002306E00022012302
:10069000DB0702E00122D2435310009874460105A3
:1006A000381C6141029C039D0019694100F029F941
:1006B000BFE70000FD030000C217C10F504010B596
:1006C0004018CA079623002100F0E2F810BD10B5CB
:1006D00000229623114600F0DBF810BD0EB5C217BC
:1006E000C10F5040CA0740180021054B02930192E8
:1006F00000910A460B4600F011F903B000BD00005E
:10070000330400000EB505490291002100910A460C
:100710000B46019100F002F903B000BD3304000064
:10072000C20F410040020123400ADB05D207090E37
:10073000C0187F2901DA00207047962903DC962330
:10074000591AC84001E096398840002AF4D0404246
:100750007047410040020122400AD205090E80186C
:100760007F2901DA00207047962903DC9622511A6E
:10077000C840704796398840704700004A00090316
:100780000123090B1B051943094B10B5520D9A4261
:1007900001DA002010BD064B34339A4203DC9A1A6A
:1007A00000F04AF810BD03495118884010BD000000
:1007B000FF030000CDFBFFFFC20FD207400040083F
:1007C0000BD0C10D0723DB01C91840020905400AFF
:1007D0001143C2084007114370470020014670478B
:1007E000CB0FDB07490010B5490802460A4307D082
:1007F0000A0D07240903E401090B121B002A01DC7E
:10080000002010BDC900440F0C43C100E018D20500
:10081000801800F035F810BD10B5202A04DB014621
:10082000203A9140002010BD914020239C1A03469D
:10083000E3401943904010BD10B5202A04DB084660
:10084000203AD040002110BD0B46D340D040202498
:10085000A21A91400843194610BD10B5202A06DBA4
:10086000CB170846203A1041C1170B4306E00B4650
:100870001341D0402024A21A91400843194610BDCC
:10088000002904DA401C490001D1400840007047AB
:1008900070B40024050C05D11024000402D10029F5
:1008A00021D01124050E01D100020834050F01D119
:1008B0000001241D850F01D18000A41C002801DB4C
:1008C0004000641C002908D020252E1B0D46F54051
:1008D000A14000D001212943084301061B1B000A47
:1008E000DB1D02D5002070BC7047DB05181880188E
:1008F0000029F8DA401C4900F5D170BC40084000DE
:10090000704710B5002B08DA0024401C6141921892
:100910005B411A4301D14008400010BDF0B51FB43F
:1009200082B005460C0003D0084604F001FE02E048
:1009300004F0FEFD20300246009021462846FFF7D5
:100940006BFF049B059A04460F4618431143084366
:1009500014D0184610431BD0009840210A1A18469C
:100960000599FFF769FF05460E46009A0599049818
:10097000FFF752FF084305D0012004E02046394626
:1009800007B0F0BD0020C11705430E432C43374389
:1009900000990E986305401A7905E40A00220C4379
:1009A000FD0A0A3002D500200146E9E701051019C9
:1009B00069410C9C0D9D00196941FFF7A2FFDFE71B
:1009C0004A0009030123090B1B0519430A4B10B503
:1009D000520D9A4202DA0020014610BD064B343314
:1009E0009A4203DC9A1AFFF727FF10BD034BD21877
:1009F000FFF712FF10BD0000FF030000CDFBFFFF5B
:100A000010B5002904DB0124E40740428C41214653
:100A1000002B04DB1C460123DB075242A341994211
:100A200000D1904210BD0000064C0125064E05E0A5
:100A3000E36807CC2B430C3C98471034B442F7D3FF
:100A4000FFF742FB646900088469000870B58C18E0
:100A50000578401C6B075B0F01D10378401C2A11FD
:100A600006D10278401C03E006780E70401C491C39
:100A70005B1EF9D12B0705D40023521E0DD40B7039
:100A8000491CFAE70378401CCB1A921C03E01D783E
:100A90000D70491C5B1C521EF9D5A142D8D3002011
:100AA00070BD000010B5024800F0FEFC10BD000053
:100AB0005401002070B50446006803F0C9FA00280C
:100AC00024D0206881688907C90F04D18168104A41
:100AD00011401031816001F0C7FA054612E001F0C3
:100AE000C3FA401B02280DD920688068400709D549
:100AF000A06D10210843A065E06D01210843E06569
:100B0000084670BD206880684007E8D4002070BDAA
:100B1000E8FFFF7F10B5846AA16D502211420DD10C
:100B2000A06D012149020843A065206803F094FAF2
:100B300000281BD0A07E002807D017E0A16DC906B1
:100B400024D5204600F0AEFC10BD206801680907DE
:100B50000CD503F07DFA0146012000290AD0A16DD1
:100B600020221143A165E16D0143E165204600F0BB
:100B700097FC10BD21684A680C239A434A60A16D16
:100B8000FF22013291430143A165EFE7216D496BDB
:100B9000884710BD10B5806A816D40221143816580
:100BA000C16D04221143C16500F07CFC10BD10B57D
:100BB000806A00F076FC10BDF8B5044600688168D4
:100BC0008907CD0F03F03CFA00282AD0002D28D148
:100BD000206881680522114010250126012914D1C1
:100BE0008168114A1140891C8160216803200860D6
:100BF00001F03AFA074610E001F036FAC01B02286D
:100C00000BD920688068C00707D0A06D2843A06575
:100C1000E06D3043E0650120F8BD20688068C007C2
:100C2000EAD10020F8BD0000E8FFFF7FF8B50446D8
:100C300000200090206803F003FA002845D12068C6
:100C40008168234A10261140002930D18168D5439C
:100C50002940491C81601F48006807218905084018
:100C600000020AD51D481C490068FFF741FA401CE4
:100C700000E0401E00900028FBD1607E012824D0B7
:100C800001F0F2F907461BE003F0DAF9002804D17D
:100C9000206881682940491C816001F0E5F9C01B8A
:100CA00002280DD920680068C043C00708D0A06D95
:100CB0003043A065E06D01210843E0650846F8BDBA
:100CC00020680168C943C907DED10020F8BD0000D3
:100CD0001700008008270140400D03000C00002091
:100CE00070B50025164C002813D01649002082004C
:100CF000401C8D500328FADB6078002808D10120C1
:100D00006070114802F082F803F0AEFD04F09CFB25
:100D100070BD0E4800F02EFE0B4802F0CBF800210B
:100D20000B4802F0A5FB0C21094802F0A1FB084882
:100D300002F0C0F8064802F0BDF8657070BD000012
:100D40001C01002070000020CC0200205401002073
:100D500018030020F3B581B001293ED11F4802F0ED
:100D6000A9F81F4800F006FE01241E4E1E4D1F4F1D
:100D700006E0641C21462846FFF7BAF90029F8D19D
:100D80002046FFF7A4FC01463046FFF7C5FA01995B
:100D9000FFF7C2FAB842ECDC104D601E2968886289
:100DA0002046FFF794FC01463046FFF7B5FA01995B
:100DB000FFF7B2FAFFF7CDFC80B22968401EC86287
:100DC00000200B4A01468300401CD1500328FADB67
:100DD000024802F01BF804F037FBFEBDCC020020F5
:100DE000540100200024744C0090D00300FF7F4782
:100DF00070000020F8B5214C214D224E224F0128D1
:100E000011D0022824D1214802292CD00A291FD12F
:100E10000122402101F021F92068FFF79AFC83B2FA
:100E20003A460C2111E0FF23052001330007022977
:100E30000FD00A290CD10122194601F00EF92068C1
:100E4000FFF787FC83B23A460021304600F020F8D5
:100E5000F8BD0022194601F000F92068FFF779FC7F
:100E600083B22A46F0E70022402101F0F6F820681C
:100E7000FFF76FFC83B22A46D3E700003C01002055
:100E8000CDCC8C3F000400404E28C03F00080050ED
:100E9000FFB5074681B00E461846FFF733FC0446FF
:100EA0000D460398FFF788FC084A094BFFF78CFBB7
:100EB00022462B46FFF720FBFFF760FC82B231464B
:100EC000384603F0DDFC05B0F0BD000066666666DE
:100ED00066660A4070B50D4D0C46002807D028788C
:100EE000002803D10120287003F0DAFC70BD08212E
:100EF000074802F0BDFA064801F0DCFF044801682B
:100F0000CC62C4600020287070BD00001C0100206D
:100F10001803002010B5044605480068FFF719FCC7
:100F200083B2224608210348FFF7B2FF10BD00003C
:100F30003C0100200004004010B5024800F0D2FD42
:100F400010BD0000B801002010B5034800F0CAFD34
:100F5000024800F0C7FD10BD44040020A00400209A
:100F600010B50446006C0949800880004018606490
:100F7000207814210838FFF7BBF804498031A164B8
:100F8000C106C90E01208840E06410BD000802407F
:100F90000179084B8906890E8A00D2180265054A34
:100FA0004432491E42658A07920F012191408165B2
:100FB00070470000FC080240F0B5846CC56C6560A9
:100FC000046D002C02D0446D856D65600B4C656826
:100FD000066C1C273E400127B7403D43656004680E
:100FE00063608368102B036803D099600068C26057
:100FF000F0BD9A600068C160F0BD000000000240D2
:1010000010B50120C00300F07FFE10BD72B602A033
:1010100004F068FAFBE700006572726F720D0A0057
:10102000F7B58AB005460C980C460068FFF7C4FB7C
:10103000314A324BFFF758FA064631480F464068AE
:10104000FFF7BAFB02460B4600202E49FFF7BCFA19
:10105000069005912846FFF7AFFB01910546059BD9
:10106000069AFFF749FA32463B46FFF7ADFA0022EF
:10107000244BFFF733FAFFF7B3FB206006900C9880
:101080004068FFF799FB1C4A1C4BFFF72DFA0646F8
:101090001B480F468068FFF78FFB02460B46002077
:1010A0001849FFF791FA02460B4628460199FFF7C7
:1010B00023FA32463B46FFF787FA0022114BFFF72F
:1010C0000DFAFFF78DFB60600F49069801220F4B68
:1010D000884200DA9A606068884200DA9A600C48B8
:1010E0002168814200DD014621606168814200DCA7
:1010F000084660600DB0F0BD666666666666FA3FDB
:101100003C01002080842E4100008C4228010020F8
:1011100000247449F0B50446002089B025460646EF
:1011200040350290287D01280ED001272F752046DA
:10113000FFF742FD0590206802F086FF0028A06DB1
:1011400005D01021084388E0022009B0F0BDFF213E
:101150000131884302210843A0652068C168414AE3
:1011600011400491C168D2431140C1600021206840
:10117000826817239A43DB071A4382603A4A206841
:101180000DE0029B5B1C0293934208D3A06D0221E9
:10119000884310210843A065002028754DE083682E
:1011A000DB0FEED18030406B491C4006400E8619A3
:1011B0000829DCD33046FEF79BFF01462068826891
:1011C0002A4B1A40521C826020680269920F9207D3
:1011D00013D1274A12680F26B60432400726B604F8
:1011E000B2420AD3920C3E46D21E96407208019635
:1011F00000E0521E0192002AFBD18030426BD209DE
:10120000D2010A434263206881681940891C8160C9
:1012100000F02AFF064612E000F026FF801B02289D
:101220000DD9206802F010FF002808D0A06D102111
:101230000843A065E06D3843E065012085E720683C
:1012400002F002FF0028E7D12068C168049A114328
:10125000C160A06D80088000401CA065002028753A
:10126000059872E70380000000F20200E8FFFF7FAC
:10127000082701407047704770477047F8B500274E
:101280000646044640360097307D0D4601280FD0B3
:1012900001203075206802F0DBFE00280AD0A06D26
:1012A00020210843A0650127002030753846F8BD8D
:1012B0000220F8BD686802287ED001222169D20789
:1012C000914202D0121D914206D120682968826A9B
:1012D0004903490B0A436EE0C206D20E0F20216E6D
:1012E000904081432868430302D0C3074BD102E0FA
:1012F0004000C00E48E0830701D5012044E04307C9
:1013000001D5022040E0030701D503203CE0C306DD
:1013100001D5042038E0830601D5052034E04306DA
:1013200001D5062030E0030601D507202CE0C305D7
:1013300001D5082028E0830501D5092024E04305D4
:1013400001D50A2020E0030501D50B201CE0C304D1
:1013500001D50C2018E0830401D50D2014E04304CE
:1013600001D50E2010E0030401D50F200CE0C303CB
:1013700001D5102008E0830301D5112004E04003CB
:1013800001D5122000E000209040014321666968E9
:10139000E2698808401C904210D820682B68826A55
:1013A0009C46C906C90E0F238B409A4363469B0097
:1013B0001B0F8B401A4300E03BE082622168AB6860
:1013C00028684A69000282431840400140090243EC
:1013D0004A612868002800DB66E72B4A116807236A
:1013E0009B051940294B984214D10B0212D4C0021C
:1013F0000143104602F038FE264825490068FEF7F2
:1014000077FE0C21401C484300E0401E009000285D
:10141000FBD149E7204B984203D1CB0101D4800294
:1014200005E01E4B9842D7D14802D5D4580201435B
:1014300025E001212069C907884202D0091D8842A0
:1014400006D120682968826A4903490B8A4382626F
:1014500028680028C0DA0C4A116807239B05194048
:101460000A4B984201D1C00208E00B4B984201D1CF
:10147000800203E0094B9842AED1400281431046FE
:1014800002F0F2FD10E7000008270140001000B054
:10149000400D03000C000020004000B8002000B404
:1014A0007047704770470000F8B50446006806684A
:1014B0004568B0070FD5A8070DD5A06DC00604D4A8
:1014C000A06D0121C9020843A0652046FFF7D3FEA5
:1014D000216802200860474F700701D5680703D4D0
:1014E000300728D5280726D5A06DC00604D4A06DE6
:1014F000012149020843A065206802F0ADFD0028E3
:1015000013D0A07E002810D12068016809070CD5EF
:1015100002F09EFD01460120002960D0A16D20222D
:101520001143A165E16D0143E1652046FFF7B8FF76
:1015300021680C20086030060CD528060AD5A06D5D
:10154000012109040843A065204600F063F92168E1
:1015500080200860F0050BD5E80509D5A06D0121B4
:1015600049040843A0652046FFF786FE206807600F
:10157000B0050DD5A8050BD5A06D01218904084340
:10158000A0652046FFF779FE01202168400208602F
:10159000F00618D5E80616D5206B002804D0206880
:1015A000C0688007800F0BD0A06D0121890208431D
:1015B000A065E06D02210843E0652046FFF772FF59
:1015C000216810200860B00408D5A80406D520467C
:1015D000FFF750FE0120216840030860F8BD216834
:1015E0004A680C239A434A60A16DB9430143A1653F
:1015F0009BE7000000010000FEB5002704460197AC
:101600003E4602970097002805D02546A06D20355C
:10161000002802D007E00120FEBD204600F0FCF8C3
:10162000E6655420065520688168C900C90F12D1AB
:101630008168714A1140012212071143816070488C
:101640006E490068FEF754FD4000801C00E0401E1B
:1016500000900028FBD120688168C900C90F08D11B
:10166000A16D10221143A165E16D01221143E165D5
:10167000174602F0EDFCA16D102211400143A06D50
:1016800003D010210843A065B2E0FF210131884357
:1016900002210843A065206802F0D2FC00286CD12A
:1016A000217EA06889030843617ECA03A17E4B03A3
:1016B0001A431043226B002A01D001221203104367
:1016C000E26810432269002A02DA5200520801E05F
:1016D0000122520510432A7B52001043019A104305
:1016E0002A78012A09D1002922D0A16D2022114394
:1016F000A165E16D01221143E165616A002906D00F
:10170000FF23C1331940A26A0143104608432168F0
:10171000CA683C4B1A400243CA606168029A890F4A
:101720008907E06C0A4310432A7F012A04D00BE0AA
:10173000012109040843E0E7636C226C491C1A4349
:10174000A36C0B431A431043226811692E4B1940B6
:101750000143116103216068890788420DD0590750
:1017600088420AD04900884207D0284A91680F234E
:101770009B0499431840014391600021626B2068EB
:1017800002F079FC2249A26B206802F074FC0F2061
:101790002169C04300291CD00122520591420AD17F
:1017A00021688A6A227F9200121FD206D20E9040D0
:1017B000226E1043886220684069616B4007400FC9
:1017C00088420BD1E665A06D80088000401CA065B2
:1017D0000FE021688A6A02438A62ECE7A06D022169
:1017E000884310210843A065E06D01210843E065AE
:1017F00001273846FEBD0000E8FFFF7F400D0300D3
:101800000C0000200102DEFF02FCFF1F0027014048
:1018100004FFFF077047000070B586B0054614212D
:101820006846FEF7D8FC2249286888423DD1214805
:101830000268012109050A4302600068084005901A
:101840001C484038416B012211434163406B002624
:1018500010400590822000900320019005206946E9
:101860000296000700F046FB144C13482060A66067
:101870000520E6606060802020614000606180009B
:10188000A06120202662E061204600F087F9002850
:1018900001D0FFF7BBFB2C65002201210C20A562C3
:1018A00000F078FD0C2000F069FD06B070BD00006E
:1018B000002401404010024008000240B80100200E
:1018C000F7B50446006802F0C3FB002845D1254661
:1018D0004035287D012840D001272F752068C16838
:1018E0001F4EC9070CD102F0ABFB002804D02068C2
:1018F00081683140891C81602068C1683943C160BA
:101900002046FFF793F9002826D1A06D154908401D
:10191000FF2101310843A0650020E065226D1249D6
:10192000D162226D11491163226D11495163226800
:101930001C21116028752068416810221143416004
:101940002168206D4031029B019A00F079F92168ED
:101950008A683240121D8A60FEBD0220FEBD000072
:10196000E8FFFF7FFEF1FFFF150B0008AF0B00083B
:10197000950B0008F8B5064604464036307D012830
:1019800007D0012737752046FFF794F8050002D0ED
:1019900028E00220F8BD206D2521095C022907D12D
:1019A00000F024F8050003D0A06D40210843A06595
:1019B00020684168102291434160002D204602D0EA
:1019C000FFF7FAF809E0FFF7F7F8050005D1A06D79
:1019D000FF21013188433843A0652068C168490868
:1019E0004900C160002030752846F8BDF0B50028D8
:1019F00008D0014620314A79022A05D00422C26368
:101A0000002008710120F0BD026813680E24A34372
:101A10001360426C1468FF2301339C431460026816
:101A200014686408640014600C4A5568066C1C2431
:101A3000264001242746B7403D435560826CC56C63
:101A40005560026D002A05D015689D431560826DB2
:101A5000406D42604C7100200871F0BD00000240F2
:101A6000F8B50024024620325179022903D004211E
:101A7000C16301242DE001680B680E25AB430B60A8
:101A800001680B685B085B000B60416C0B68FF250D
:101A90000135AB430B6010494D68066C1C231E409A
:101AA00001231F46B7403D434D60816CC56C4D60BE
:101AB000016D002906D00E681D02AE430E60416D17
:101AC000856D4D60537100211171816B002900D02B
:101AD00088472046F8BD00000000024020304079D1
:101AE00070470000F0B42C490C6802681368056C5C
:101AF0001C273D400426AE40264211D05E070FD57C
:101B000013689B0603D4146804239C4314604B6839
:101B1000046C04223C40A24013434B60016B1CE068
:101B20000227AF40064627402036002F19D09F07D6
:101B300017D513689B0605D413680A24A3431360C2
:101B4000012272714B68046C1C2214400222A240D4
:101B500013434B6000213171C16A00291AD0F0BCD7
:101B600008470827AF40274214D01B0712D5136837
:101B70000E24A34313604B68046C1C221440012202
:101B80001546A5402B434B60C26372710021317131
:101B9000416BE2E7F0BC70470000024070B5040002
:101BA0003FD02548256814212818FEF7A1FA8000A7
:101BB0002064022026462036707128681F4908409C
:101BC0002860E168A06862690843216911430843FD
:101BD000A1690843E1690843216A084321680A684A
:101BE000104308602046FFF7BBF90121A068890374
:101BF0000025884200D165602079616C8006800EE6
:101C00000860A06CE16C41606068401E03280AD83F
:101C10002046FFF7BDF9206D0560606DA16D416044
:101C200004E0012070BD25656565A565E5630120BB
:101C300070713571002070BDF8FFFDBF0F80FFFF90
:101C4000F8B504468C4620300179002501290BD0D7
:101C50000126067141790027012907D08021E1631F
:101C6000077101252846F8BD0220F8BD0221417107
:101C7000E763206801684908490001606146204621
:101C8000FFF79AF9206B00282068016801D00E2226
:101C900005E0042291430160206801680A22114393
:101CA0000160606C0168CA03074902D502680A43F3
:101CB0000260206D002802D002680A43026020689A
:101CC000016831430160CDE70001000070B50446B2
:101CD00000F0CAF90546601C02D0044800782418B8
:101CE00000F0C2F9401BA042FAD370BD00000020F2
:101CF00010B51021024800F0ABF90249087010BD80
:101D0000000400501000002070B5084D0446E8683B
:101D1000204203D0EC60204600F00AF828692042F7
:101D200003D02C612046FFF7E3FF70BD001802408E
:101D3000F8B5654C654D2078012805D1102128465D
:101D400000F086F9002803D02078002802D007E0B0
:101D5000012006E01021284600F07AF901281ED063
:101D60000020594B607047B2103318465849594DFE
:101D7000594A0E38594E5A4C7F1C48D0022F25D153
:101D80000778002F0ED0012F20D140781E5C5548D7
:101D9000330003F0E4FB051C202830371B00002033
:101DA000C043DEE74078042802D0022804D007E0D0
:101DB0003069C721401E49E0B0683221401C3EE036
:101DC00080003158002946D000213150F8BD2068EC
:101DD000FEF70CFA44E06168814249D045E0FEF725
:101DE000FFFC6060F8BDA16881424BD047E0FEF780
:101DF000F7FCA060F8BD2946E068FEF750FA7F21A5
:101E0000C9054CE011462069FEF7F0F95AE0077861
:101E1000002F0CD0012FEDD140781E5CB8073300A5
:101E200003F09DFB051B202A344C0400E2E74078B8
:101E3000042808D00228C3D1B06832213130FEF71F
:101E40006DF9B160F8BD3069C721C01EFEF766F9B3
:101E5000891C3161F8BD0121B7E72068FEF717FA48
:101E60002060F8BD6168814202D11F481F49B6E772
:101E7000002001218907B2E7A168814202D11A48F6
:101E80001A49B4E7002001218907B0E72946E06834
:101E9000FEF705FA7F21C905FEF7F9F91449FEF7A7
:101EA000A5F9FEF73DFC2121FEF738F90846FEF7BB
:101EB00003FC2946FEF730FAE060F8BD11462069C0
:101EC000FEF7E5F92061F8BD100000200004005085
:101ED0000000C842000020410050C34728010020F4
:101EE0003C0100209A99214133333333333324406A
:101EF00000000442F0B5002303249AE02A4601259D
:101F00009D402A407ED00E79B607B60F012E01D033
:101F1000022E16D186682746B4465E00B646B74004
:101F20006646BE43B446CF687646B74066463743FA
:101F300087604668AE430D79ED06ED0F9D40354351
:101F400045600D79ED43AD0708D0C5685F002646B2
:101F5000BE40B5438E68BE402E43C6600D79AD07C6
:101F6000AD0F022D0ED1DD08AD002D18AC462D6A47
:101F70005E07F60E0F27B740BD430F69B7402F43EA
:101F800065462F6205685F002646BE40B5430E7960
:101F9000B607B60FBE402E4306604D68AD03AD0FC9
:101FA00046D09E08264DB6007519AC462D6E9E078C
:101FB000F60E0F27B740BD4305273F07B84201D1B2
:101FC00000270FE01F4FB84201D101270AE01E4F42
:101FD000B84201D1022705E01C4FB84201D10327C6
:101FE00000E00527B7402F43154D664637662D683C
:101FF0004E689543F60200D51543114F3D607D684C
:10200000954300E014E04E68B60200D515437D60AC
:102010000B4D80356E684F689643BF0300D516435D
:102020006E602E684F689643FF0300D516432E60FE
:102030005B1C0A681546DA4000D05FE7F0BD00007F
:10204000001802400004005000080050000C00502E
:102050000069084000D001207047002A01D081614A
:102060007047816270470000014880687047000037
:102070000000002070B5024640325378202B1CD15E
:102080001378012B19D00123137024245470046891
:1020900025689D432560046825681E03B5432560B7
:1020A000046825680D4325600068016819430160D4
:1020B000202050700020107070BD022070BD70B5DF
:1020C000024640325378202B1BD11378012B18D0B5
:1020D000012414702423537003681D68A5431D60F8
:1020E00005682B680F263602B3430902194329609D
:1020F00000680168214301602020507000201070AA
:1021000070BD022070BD7047704770B503689A6952
:102110001968D243D40508D4CC43240605D4446CB2
:1021200001252C4344642C02DC61530509D4CB43C4
:102130001B0606D4436C082423434364E30104686C
:10214000E361920509D4C943090606D4416C022211
:102150001143416411020268D161416C0B221142AA
:1021600001D001F071FC70BD026891691268436B87
:10217000002B00D0184770477047000070B504006E
:1021800006D02546403568780026002802D005E0B4
:10219000012070BD2E70204600F050F82420687099
:1021A000206801684908490001600F21606809063C
:1021B00088432168086121688A680120C00382433E
:1021C0008A60E1680129A1682FD02122920211437F
:1021D000226891600121E268C902022A22685368DC
:1021E00025D08B43536021684A68124B1A434A60DA
:1021F0002168CA688243CA60616920690843A1698D
:10220000090208432168C860216AE069084321681F
:102210000860206801680122114301606664202083
:1022200068702663AE70002070BD0143D0E70B4399
:10223000D8E70000008000027047000010B586B0AB
:10224000044614216846FDF7C6FF164920688842F7
:1022500026D1154C606B012108436063606B084018
:1022600005900320C00200901220019000200290EF
:10227000039006200490052069460007FFF73AFE08
:10228000E16B012080050143E163E16B0022014025
:1022900005910121182000F07DF8182000F06EF85B
:1022A00006B010BD00580040001002407047704753
:1022B0000248816802788918816070470000002018
:1022C00010B50848002401688215114301600320FD
:1022D00000F00AF8002801D0012401E000F028F8FD
:1022E000204610BD0020024070B50F4E002431780A
:1022F0000546002915D07D20C000FDF7F9FE0146F6
:102300000A480068FDF7F4FE00F0CCFC002808D174
:10231000042D06D200222946401E00F03BF87560CD
:1023200000E00124204670BD000000200C000020C9
:1023300008B5094801680122114301600068104096
:10234000009005484038C26B01040A43C263C06B69
:102350000840009008BD000040100240002809DB42
:10236000C106C90E0120884003490860BFF34F8FA2
:10237000BFF36F8F7047000080E100E0002805DBAD
:10238000C106C90E0120884001490860704700005D
:1023900000E100E010B503F0EFF810BD10B50F4CF0
:1023A000216803225202914301432160C11FFF397A
:1023B000FA390ED10A480621006848430949FDF759
:1023C00097FE401C02E0002805D0401E61694905C7
:1023D000F9D4002010BD032010BD000000700040A3
:1023E0000C00002040420F00F8B50F46060043D015
:1023F0004D4D28684007400FB84213D22868C008E6
:10240000C00038432860FFF72FFE044605E0FFF7C1
:102410002BFE011B4548814261D828684007400FC8
:10242000B842F4D13068424C81070DD5400704D53D
:10243000A068072109030843A060A0680F210902D2
:102440008843B1680843A0603078C00732D0706814
:1024500001280AD002280BD000280FD0344940317F
:1024600003280ED0C969890704E02168890301E0C7
:1024700021688901002906DB0120F8BD2168490592
:10248000F8E7096AEFE7A168C908C9000143A1603C
:10249000FFF7EAFD009006E0FFF7E6FD0099411A1C
:1024A000224881421BD8A068382108407168C900C1
:1024B0008842F1D128684007400FB84217D91A481E
:1024C0000168C908C90039430160FFF7CDFD054621
:1024D00007E0FFF7C9FD411B1448814201D90320E1
:1024E000F8BD114800684007400FB842F1D130787C
:1024F000400706D5A068072109038843F16808430F
:10250000A06000F031F8A1683C2289091140094A15
:10251000515CC906C90EC8400749086007480068F1
:10252000FFF7E2FEF8BD0000002002408813000023
:1025300000100240AC6300080C00002004000020E2
:102540000648074900688968064A4904490F890016
:10255000515CC906C90EC840704700000C0000203D
:1025600000100240EC63000810B5204CA068204A1F
:102570008006400F16D0A0688006410F5010012938
:102580000FD0A1688906490F022912D0A0688006E1
:10259000400F042823D0A0688006400F032821D0D4
:1025A000002010BD206801218004400F81401046AA
:1025B00012E0E1688B07E1689B0F4906490F491C4F
:1025C000032B00D01046FDF793FDE1684904490E46
:1025D0004843E168490F491CFDF78AFD10BD012001
:1025E000C00310BD7D20000210BD0000001002409D
:1025F0000024F400F8B504007ED020783827C00706
:10260000ED4D002846D0A868E96838408907890F51
:10261000102802D008280BD001E0032908D001209F
:102620006268000482420AD129680143296015E0EA
:10263000286880032ED560680028DDD02AE00523B5
:1026400001211B0489049A422A6802D10A432A60A4
:10265000EAE782432A602868884328606068002887
:102660000CD0FFF701FD064604E0FFF7FDFC801BE0
:10267000642873D828688003F7D50BE0FFF7F4FCD3
:10268000064604E0FFF7F0FC801B6428F1D82868B8
:102690008003F7D42078800769D5A868E9683840B6
:1026A0008A070721920FC902102802D0002813D0F0
:1026B00001E0022A10D0E068002846D0286888434C
:1026C0002169084328602868FF21013108432860F8
:1026D000FFF7CAFC06462CE02A68520502D5E268DC
:1026E000002A89D06A687F231B029A4363691B0210
:1026F0001A436A60002800E08DE00ED12868884304
:10270000216908432860286801218004400F814026
:10271000AA48FDF7EDFCAA490860AA480068FFF73F
:10272000E3FD002877D122E0FFF79EFC801B022802
:102730009FD828684005F7D568687F21090288433B
:10274000616909020843686011E02968FF200130CF
:1027500081432960FFF788FC064605E098E0FFF713
:1027600083FC801B022884D828684005F7D4207891
:10277000954E00072ED5A8688006400F03280AD082
:10278000A0690028306A16D0012108433062FFF7A3
:102790006BFC07460BE0306A80071BD5A069002858
:1027A0009FD017E0FFF760FCC01B022870D8306A8A
:1027B0008007F7D50EE0400840003062FFF754FC78
:1027C000074604E0FFF750FCC01B022860D8306ABF
:1027D0008007F7D4207840076CD5A86800278006CA
:1027E000400F042818D0E86BC00008D4E96B012022
:1027F00000070143E963E96B014001270091734839
:102800000168C90519D40168821511430160FFF7F9
:102810002BFC00900DE083E0F06980074AD5A068AA
:1028200000287DD046E0FFF71FFC0099401A0228DF
:102830002ED866480068C005F5D5A168012910D0DA
:1028400004200529F16911D049084900F161F169B5
:102850008143F161A068002816D0FFF705FC0090C5
:102860000EE0F06901210843F061F3E70143F161F3
:10287000F7E7FFF7F9FB0099411A5548814267D8FD
:10288000F0698007F5D50EE0FFF7EEFB009007E05A
:102890005EE0FFF7E9FB0099411A4D48814257D8A5
:1028A000F0698007F5D4002F04D0E86B01210907F7
:1028B0008843E863E06900287BD0A9688906490F4E
:1028C00002294FD0012636060228286805D0B043D9
:1028D0002860FFF7C9FB04463CE0B0432860FFF7DF
:1028E000C3FB074604E0FFF7BFFBC01B02282FD83D
:1028F00028688001F7D4616A206AA26A0843E16A05
:10290000120211430843216B0843616B0843E968D5
:10291000304A11400843E86028683043286000E0EE
:1029200045E0E868012109070843E860FFF79CFBE0
:10293000044604E0FFF798FB001B022808D828682B
:102940008001F7D535E0FFF78FFB001B022801D986
:102950000320F8BD28688001F5D4E8681E490840C6
:10296000E86026E00128F4D0E868226A8107890F30
:1029700091421CD17021626A0140914217D17F219E
:10298000A26A090201401202914210D11F2149049A
:10299000E26A014091420AD107214906226B0140B7
:1029A000914204D1400F616B4007884201D0012061
:1029B000F8BD0020F8BD0000001002400024F40023
:1029C0000C00002004000020401002400070004075
:1029D000881300008C80C111FCFFFEEEF8B50400E6
:1029E0000CD0606A002500280AD025616561264662
:1029F0004036A562707F002808D00BE00120F8BDAA
:102A00006168C81FFD38F2D0E561F0E735772046F0
:102A100000F05CF802227277206801684023994335
:102A200001600723E1681B02994201D9002001E0FF
:102A3000012000030F273F02B94202D0994200D083
:102A4000A562FF236168053319402127A368BF02EF
:102A50003B40194323691340227D1943D207D20F0B
:102A600011430123A2695B021A401143E269382332
:102A70001A401143226A80231A401143A26A9B0123
:102A80001A40114322681160A1690422090C114007
:102A9000626A10231A401143626B08231A401143E3
:102AA0000F23E2681B021A40114301221203104057
:102AB0000143206841602068C16952109143C1619F
:102AC0002566012070770020F8BD000010B586B0A3
:102AD000044614216846FDF77EFB164920688842AB
:102AE00025D11548C26B09140A43C263C26B0A4060
:102AF0000592426B02210A434263406B01910840F8
:102B00000590FF2081300090002002900120039169
:102B1000049069460948FFF7EDF909480168012268
:102B2000520411430160016882001143016006B044
:102B300010BD0000003800400010024000040050AA
:102B400000000140FFB5054604464035287F0027B8
:102B500081B01646012809D001202877FFF784FAB2
:102B60000090687F012804D0022797E0022005B07A
:102B7000F0BD0298002874D0002E72D00320687730
:102B8000002020660299A163A687E6872064A880BA
:102B9000E8802065E0640122A068D20340219042D1
:102BA00008D1206802688A430260206802680B022C
:102BB0001A43026020680268520602D402680A437F
:102BC00002600721E06809028842606828D900286D
:102BD00001D0012E1ED1A06B21680088C86006E0DC
:102BE00020688168890709D5A16B0988C160A06B3D
:102BF000801CA063E08F401EE0870BE0FFF734FAF3
:102C00000099411A0498814202D3401C02D005E089
:102C1000002803D0E08F0028E2D128E003273BE022
:102C2000002801D0012E1FD1A06B21680078087305
:102C300006E020688168890709D5A16B09780173CE
:102C4000A06B401CA063E08F401EE0870CE0FFF704
:102C50000BFA0099411A0498814203D3401C03D017
:102C6000DCE717E00028D9D0E08F0028E1D120462A
:102C7000009A049901F01DFE002801D02020206652
:102C8000A068002803D12068C16880680090206E89
:102C9000002801D0012701E0012068770020287773
:102CA000384664E7094910B5401E884201D9012021
:102CB00010BD074C60610321081F02F05DFC00207D
:102CC000A06107202061002010BD0000FFFFFF0071
:102CD00000E000E07047704770470000F0B5034621
:102CE00020331A7F012A28D001221A7702225A772C
:102CF00004686268A568124FBC4205D116460F22CF
:102D0000120596434A6832437026B2430E68164352
:102D100066600068B84206D001229207904202D055
:102D2000084A904204D180228968954329438160F2
:102D30000120587700201877F0BD0220F0BD000078
:102D4000002C01400004004070B5040005D0254669
:102D50002035687F002802D006E0012070BD0020E9
:102D60002877204600F016F802206877211D206899
:102D700001F0DAFE012240342272AA77EA7722704B
:102D80006270A270E27022716271A271E2716A7760
:102D9000002070BD08B501220168920718489142D1
:102DA00007D1C16B01221143C163C06B1040009079
:102DB00008BD144A91420DD1C26B02210A43C2637D
:102DC000C06B00220840009011461020FFF7E2FA85
:102DD000102012E00C488142EAD1094840300268D4
:102DE000012189040A430260006800220840009023
:102DF00011461620FFF7CEFA1620FFF7BFFA08BDDE
:102E0000001002400004004000480140014620310B
:102E10004A7F012A01D00120704702224A770068C8
:102E20000B490122884205D09107884202D0094906
:102E3000884207D18168084B1940062905D0DB1F5D
:102E4000994202D0016811430160002070470000E0
:102E5000002C014000040040070001000146203121
:102E60004A7F012A01D00120704702224A77016877
:102E7000CB6801221343CB6000680B49884205D020
:102E80009107884202D00949884207D18168084BDE
:102E90001940062905D0DB1F994202D00168114371
:102EA0000160002070470000002C01400004004039
:102EB0000700010001680A6A074B1A4207D10A6A33
:102EC0009B101A4203D10A68520852000A6001217D
:102ED000203041770020704711110000F8B50546F9
:102EE00004462035287F0026012817D001272F7798
:102EF00002206877226890682F4B1840FF231B023E
:102F0000984390600868502838D00EDC20284FD0B5
:102F100006DC00284CD010281ED149E00220F8BD64
:102F2000302845D0402817D13AE060282ED07028AC
:102F300018D001221203801A0FD090420CD1CB6816
:102F40004A688968206801F046FE2068816801228D
:102F500092031143816000E001266F7700202877FB
:102F60003046F8BDCB684A688968206801F033FEB6
:102F700021688868772210438860EEE7CA6849684C
:102F8000206801F08BFF5021206806E0CA6849687C
:102F9000206801F094FF6021206801F027FEDCE743
:102FA000CA684968206801F079FF40212068F4E789
:102FB000226801461046F0E788FFCEFF7047000008
:102FC000F8B504460068C66805690027A907002906
:102FD00013DAB10711D5F91E0161012020772068AD
:102FE00080698007204602D0FFF7E8FF04E000F088
:102FF000F7F8204600F0D7F92777680716D570074D
:1030000014D504202168C04308610220207720687D
:1030100080698005800F204602D0FFF7CFFF04E0D3
:1030200000F0DEF8204600F0BEF92777280715D516
:10303000300713D508202168C04308610420207799
:103040002068C0698007204602D0FFF7B7FF04E080
:1030500000F0C6F8204600F0A6F92777E80616D556
:10306000F00614D510202168C0430861082020779D
:103070002068C0698005800F204602D0FFF79EFFC0
:1030800004E000F0ADF8204600F08DF92777E8075E
:1030900008D0F00706D001202168C043086120460F
:1030A00000F032FA280601D4A80407D5300605D569
:1030B0002168134808612046FFF70DFEE80507D593
:1030C000300605D521680F4808612046FFF702FE4B
:1030D000680608D5700606D540202168C0430861FF
:1030E000204600F0BDFAA80608D5B00606D5202077
:1030F0002168C04308612046FFF7EEFDF8BD0000DF
:103100007FDFFFFFFFFEFFFF70B586B0044614218E
:103110006846FDF760F814492068884222D11348B8
:10312000416B012631434163416B31400591416B55
:10313000022421434163406B00252040059040203C
:10314000694631C105206946000704960395FEF7DC
:10315000D1FE0320694631C16946054804960395AE
:10316000FEF7C8FE06B070BD00040040001002402B
:103170000004005070B5054620352B7F0024012B3C
:103180000BD001232B770C2A1ED008DC002A0FD08D
:10319000042A11D0082A06D112E0022070BD102A9C
:1031A00016D0142A18D0012400202877204670BD9C
:1031B000006801F025FDF7E7006801F05FFDF3E727
:1031C000006801F099FDEFE7006801F0D3FDEBE73F
:1031D000006801F003FEE7E7006801F02DFEE3E779
:1031E000704770B5040005D025462035687F00285B
:1031F00002D006E0012070BD00202877204600F0B4
:1032000016F802206877211D206801F08DFC01224C
:1032100040342272AA77EA7722706270A270E2705C
:1032200022716271A271E2716A77002070BD7047ED
:10323000F8B504460020264620360090307F0D4623
:1032400001280CD00120082730770C2A48D008DC50
:10325000002A10D0042A1ED0082A06D130E002200D
:10326000F8BD102A52D0142A60D00120009000200E
:1032700030770098F8BD206801F0C2FC20688169B1
:10328000394381612068816904229143816120680A
:1032900081692A6911E0206801F0F0FC20688169E9
:1032A0000122D20211438161206881695210914349
:1032B0008161206881692A69120211438161D6E720
:1032C000206801F019FD2068C1693943C161206897
:1032D000C16904229143C1612068C1692A6912E071
:1032E000206801F047FD2068C1690122D202114324
:1032F000C1612068C269012189028A43C2612068D4
:10330000C1692A6912021143C161B0E7206801F066
:1033100065FD2068416D394341652068426D042197
:103320008A4342652068416D2A6912E0206801F0F5
:1033300083FD2068416D0122D2021143416520685E
:10334000426D012189028A4342652068416D2A69E4
:103350001202114341658AE770B5040005D0254685
:103360002035687F002802D006E0012070BD0020D3
:103370002877204600F016F802206877211D206883
:1033800001F0D2FB012240342272AA77EA77227040
:103390006270A270E27022716271A271E2716A774A
:1033A000002070BD7047704710B5044602232030DE
:1033B00000290ED0042911D020464030082912D00F
:1033C0000C2915D0102918D0C278012A1AD0012052
:1033D00010BD827F012AFAD1837714E0C27F012ACF
:1033E000F5D1C3770FE00278012AF0D103700AE02B
:1033F0004278012AEBD1437005E08278012AE6D1B8
:10340000837000E0C3700122206801F0D7FB1349EC
:103410002068884205D0124A904202D0114A904258
:1034200004D1426C0123DB031A4342642068012269
:10343000884205D09107884202D00B49884207D1C3
:1034400081680A4B1940062905D0DB1F994202D03A
:10345000016811430160002010BD0000002C0140F4
:103460000044014000480140000400400700010002
:1034700070B504460D460068002201F09FFB1F490D
:103480001D4B20688A10984205D01D4B984202D0EF
:103490001C4B98420AD1036A0B4207D1036A1342BC
:1034A00004D1436C0126F603B34343642068036AE6
:1034B0000B4206D1016A114203D101684908490053
:1034C0000160214620310120002D0BD0042D0BD0AE
:1034D0004034082D0AD00C2D0AD0102D0AD0E070EF
:1034E000002070BD8877FBE7C877F9E72070F7E721
:1034F0006070F5E7A070F3E7002C014011110000A7
:10350000004401400048014070B5394988426ED1FD
:10351000384C14216068401CFCF700FE61600029F3
:1035200037D1052636072021304600F005FD00285A
:103530000DD102F0A7FC304D03212868401CFCF798
:10354000EDFD2EA0296001F0CDFF02F0CDFC102191
:10355000304600F0F1FC274DAD1C002807D128783B
:1035600000280BD00021297029A001F0BBFF082101
:103570002C4800F0E1FC002802D00AE00121F2E72B
:1035800068780521401CFCF7B3FD697026A001F0A6
:10359000A9FF2A488068FDF78FF82949FCF7BCFE8F
:1035A0002849E5688D4201DD002008E0264EFCF741
:1035B00076FE3146FCF7B0FE2946FCF717FEE060C8
:1035C000FDF7AEF86421FCF7A9FD8800A1601F4952
:1035D0000858FDF783F81E4A1E4BFCF78DFF0022AA
:1035E0001D4BFCF7F1FFFDF7FBF81C49C86070BDEF
:1035F000640300201000002018010020737461741F
:10360000757376616C75653A2025640D0A000000BB
:1036100073656C65637476616C75653A2025640D1D
:103620000A0000000004005073656C656374696EE5
:103630006465783A2025640D0A0000002801002006
:10364000000020410000C84200007A44D46700080E
:103650006666666666660A4000FEAF403C01002072
:103660007047704770B5040005D025468035A868BE
:10367000002802D006E0012070BD002028712046FD
:1036800000F026F82420A860206801684908490055
:103690000160A06A002802D0204601F023FC2046E9
:1036A00001F084FD0128E7D0206841680922D20298
:1036B00091434160206881682A229143816020689B
:1036C0000168012211430160204601F071FC70BDC8
:1036D000F0B587B0064614216846FCF77CFD2A4900
:1036E000306888424DD12948C26B012149040A4300
:1036F000C263C26B0A400592426B01210A434263D6
:10370000406B0024084005900C200090022001909E
:10371000049105200294039469460007FEF7EAFB32
:103720001C4D1B482860AC60EC6080276C612F61E9
:103730003420AC61686020202C62E8612846FEF7E6
:103740002DFA002801D0FDF761FC80208551AE6282
:10375000104D0F485C3514302860352068602946CC
:103760001020083191C16C61AC6120202C62E861AD
:103770002846FEF713FA002801D0FDF747FCF5674D
:10378000AE6207B0F0BD00000044004000100240EF
:103790001C00024044040020FFB506460446803663
:1037A000B06883B00D46202802D0022007B0F0BDDB
:1037B000002D0CD00598002809D00120A168000335
:1037C000814206D12069002803D1E80701D00120F9
:1037D000ECE7002030612120B060FEF745FC01904D
:1037E000274640370598B8820598F8820120A168DD
:1037F0000003814202D12069002802D002950025F1
:1038000015E00020029012E000228021204601F005
:10381000D3FD002818D10298002819D0216800781B
:1038200088620298401C0290F88A401EF882F88A4A
:10383000019B002806980090E6D1002240212046F6
:1038400001F0BAFD00280AD02020B0600320ADE7C7
:1038500028882168C005C00D8862AD1CE4E72020DF
:10386000B0600020A2E7000070B505460446803530
:10387000A868202801D0022070BD00290BD0002AA2
:1038800009D00123A0681B03984206D120690028B3
:1038900003D1C80701D0012070BD2046403021650A
:1038A0008282C282002028612121A960E16F002963
:1038B00018D0154BCB62E36F14491963E36F1449B9
:1038C0005963E16F134688632668216D32462832BA
:1038D000E06FFEF7B5F9002804D010202861202001
:1038E000A860D8E7216840200862EFF3108001212A
:1038F00081F3108821688A6880231A438A6080F3E4
:103900001088002070BD0000B75000080351000867
:103910006950000870477047FEE7000010B5064880
:10392000006880694005400F034802D0FEF7EDFBB8
:1039300010BDFEF719FC10BD1402002010B5806AFE
:103940000021826B002A00D09163C26B002A00D054
:10395000916300F0DDFA10BDF0B504460022CE07F9
:1039600040342823B025002E05D0667842221F4619
:10397000B74300D0F2228E0705D54426647832433F
:10398000A34300D02A43CB0B01D0B8231A431029FC
:1039900008D0202907D0402905D00068016891434C
:1039A0000160F0BD90210A43F7E701688A69D243BC
:1039B000920701D400228A6200688169C943C9075D
:1039C00003D081690122114381617047F8B5054632
:1039D00004464035687828218143206804D00821B6
:1039E000C16100202870F8BD8169C903CF0F8169CA
:1039F000FE230E0C81681E408A05C168920D194095
:103A00008C46E168022916D10621D3090E400B40ED
:103A10009E420FD1A16C491CA164A16C0229E2D184
:103A20000021A1640823C361297039462046FEF7AE
:103A30006BFBF8BD66460121C9032046FFF78CFFEA
:103A4000002028703246F0E7F8B5054604464035B8
:103A500068780026AE703D4AE2626685626C0A4371
:103A60006264282832D0292830D02A282ED038491C
:103A70002046FFF771FF2046FFF797FF6878602820
:103A800012D02021697020688269D24392060BD43B
:103A90008269D243D20605D41022C261606C04222E
:103AA000104360642068C1616663206BA16B294F7D
:103AB000002903D0112812D0212810D0E16B002951
:103AC00025D0122827D0222825D020E00321204607
:103AD000FFF742FF282068701F486063E5E7206811
:103AE0000168490404D501680122920391430160F1
:103AF000A06BFDF7F3FF012809D0A06B87632E7040
:103B0000A06BFDF7ADFF002804D0A06B1AE02046A3
:103B100000F0FEF9F8BD20680168090404D50168C9
:103B20000122D20391430160E06BFDF7D7FF01282A
:103B3000EDD0E06B87632E70E06BFDF791FF0028FE
:103B4000E8D0E06B816B8847F8BD00000000FFFF04
:103B5000038000003D390008F13D000870B50446BF
:103B60001648E062002525632022204640300646A4
:103B700042708570C8436563400712D42068406A6C
:103B8000616A0870606A401C6062208D002808D05D
:103B9000401E2085608D401E6085606C04210843B6
:103BA000606407492046FFF7D7FE21681020C861EE
:103BB00035702046FEF740FB70BD00000000FFFF9F
:103BC00003800000F8B50268044610680090E66AB9
:103BD0000F462546403568782021D161212808D03C
:103BE000292806D022280AD02A2808D028280DD033
:103BF00013E061492046FFF7AFFE21200CE05E494B
:103C00002046491CFFF7A8FE222005E05A4920461D
:103C1000891CFFF7A1FE0020206320684168012273
:103C2000D2031143416020684168544A1140416009
:103C30002046FFF7BAFE0098C243500407D420681C
:103C4000016801239B0399430160A06B08E0100405
:103C50000BD4206801680123DB0399430160E06B0A
:103C6000002802D0006840686085F84340070421BE
:103C700000280FDB20688F43406A636A1870606A0F
:103C8000401C6062208D002804D0401E2085608D7D
:103C9000401E6085608D002802D0606C084360641F
:103CA000F843C00614D4D00612D4628D1020002A26
:103CB00020D02268D061606C08436064002E03D07D
:103CC00001200006864203D1616C2046FFF7BCFE4E
:103CD0000026AE706663606C00282AD0616C2046B6
:103CE000FFF7B2FE6878282803D139462046FFF74F
:103CF00035FFF8BD6978282908D1012149068E428F
:103D000004D139462046FFF729FFE1E769782929E0
:103D10000CD101210904CE4208D02168C861204697
:103D2000FFF743FE204600F02DF8D1E72168C86177
:103D3000CEE7E06A124FB8420BD0204600F022F8DE
:103D4000E7622020687026632E702046FEF774FA22
:103D5000F8BD6878222807D02020687026632E706E
:103D60002046FEF7A4FAF8BD2020687026632E7066
:103D70002046FEF79BFAF8BD0180000000E800FE37
:103D80000000FFFF70B505460068016800262C465C
:103D90004034A670C9434A0403D401680122920347
:103DA00004E0090404D401680122D20391430160B4
:103DB0006178282029290ED061782A290AD16070DB
:103DC0002220286302212846FFF7C6FD26702846D8
:103DD000FEF76CFA70BD607021202863012128462F
:103DE000FFF7BAFD26702846FEF761FA70BD0000A5
:103DF000F8B50446C06A254640352B78012B0CD017
:103E000001232B70CB439E06D243002E07DB960680
:103E100005D42046FFF7D6FE74E00220F8BD3B4EE5
:103E2000DF062FD4D7062DD4638D1022002B0ED0A1
:103E30002168CA61616C042211436164002801D0C9
:103E4000B0425FD1616C2046FFF7FEFD5AE06B780F
:103E5000282B07D101235B06984203D12046FFF7A8
:103E60007DFE4FE06978292909D101210904C84262
:103E700005D02068C2612046FFF797FD3FE020682B
:103E8000C2613FE05F0719D4570717D4618D00293D
:103E90000CD02168496A626A1170616A491C6162CA
:103EA000218D491E2185618D491E6185618D002905
:103EB00028D101210904C84221D123E01F0705D4DC
:103EC000170703D42046FFF781FD1BE0990719D49B
:103ED000910717D4618D00290DD0606A21680078A0
:103EE0008862606A401C6062608D401E6085208D23
:103EF000401E208506E0B04201D0002802D12046B5
:103F0000FFF740FF00202870F8BD0000000000010E
:103F100010B5014640314B780022602B04D002637B
:103F20000A70FEF729F910BD20234B7002630A7056
:103F3000FEF7E9F810BD00000B2210B51207821839
:103F400008D001239B029A4275D1082912D010296A
:103F500071D112E0102907D0202908D00122D20304
:103F6000914268D1354C0AE0344C0C3C07E0334CAC
:103F7000A41F04E0314CA41D01E0304C0C34FEF7CA
:103F800067F86070237801220021002B04D0012BF8
:103F900006D0072B0CD107E000280BD0012818D041
:103FA000002820D0012833D000283FD0012810D08D
:103FB0000A2010BDE170A078401CC0B2A070217131
:103FC0006279022A37D1642835D3A1700720207086
:103FD0002FE0E078401CC0B2E07003282BD32270A1
:103FE000E170012010BDA078401CC0B2A070032871
:103FF00021D32170A1706079002805D006281AD03D
:10400000401C6071217116E002206071002010BD1B
:10401000A1706279002A0ED02079431C23710A28EE
:1040200009D9521E2171D0B2617110BDE170617168
:104030002171072010BD082010BD000031000020B4
:104040008068C007C00F70478068C007C00F704706
:1040500080684007C00F7047C0680005800F01D01E
:104060000020704701207047026807239B059A4390
:104070000A430260704710B54369042421400724B5
:104080008C40A3438A401343436110BD3EB50024D6
:10409000284800940194264902940160846009052F
:1040A000C460416008254912456101610476447687
:1040B00084760321C1610146203109220C70D201AE
:1040C0004262EA01826201220A734463120384633A
:1040D00002630C77C464FDF78FFA002801D0FCF767
:1040E00095FF154800900194694602941148FDF728
:1040F000C5F8002801D0FCF789FF10480090042083
:10410000019069460B48FDF7B9F8002801D0FCF78B
:104110007DFF0B4800900B480290019569460548C9
:10412000FDF7ACF8002801D0FCF770FF3EBD0000A1
:104130000024014054010020020000048000001C03
:10414000002000B404FFFF0708B50C48816B012272
:1041500011438163806B01211040009000220920EF
:10416000FEF718F90920FEF709F9002201210A20BB
:10417000FEF710F90A20FEF701F908BD0010024011
:10418000F0B587B014216846FCF725F83748426B34
:1041900004210A434263426B0A400592416B0125A8
:1041A00029434163416B29400591416B022631430C
:1041B0004163406B032130400590002289032C4865
:1041C000FDF74BFF01221702052039460007FDF7D6
:1041D00044FF012240212648FDF73FFF00226021D5
:1041E0002448FDF73AFF24480024009002946946D1
:1041F000019503941E48FDF77DFE302000900520B8
:104200000194694602940007FDF774FE05200294AC
:1042100069460007009701950394FDF76BFEE803DC
:1042200000903120000401900520694602940007A7
:10423000FDF760FE182000900194694602940D4835
:10424000FDF758FE602000906946039601950294A0
:104250000848FDF74FFE002211460720FEF79AF8A6
:104260000720FEF78BF807B0F0BD000000100240F9
:10427000000800500004005040C0000010B5134872
:104280001149016012494160002181600161416171
:1042900081610122C161C2600162FDF76FFF0028E8
:1042A00001D0FCF7B3FE00210848FDF7E3FE00282B
:1042B00001D0FCF7ABFE00210448FDF700FF002809
:1042C00001D0FCF7A3FE10BD0058004014020020EE
:1042D000B57DB11010B511480F490160FF210531BE
:1042E000416007221202C260002181600222026145
:1042F0004161C161016212024162826181620722F1
:10430000C262016308214163FEF768FB002801D007
:10431000FCF77CFE10BD0000003800406802002061
:1043200010B50B48094901600A49416000218160CC
:1043300009220161C260416180218161FEF704FDB3
:10434000002801D0FCF762FE10BD000000480140CB
:1043500064030020FF18000030B58FB000240794DC
:10436000089409940A940B940C941C2168460D94AB
:10437000FBF731FF01211E48890712C00460802528
:1043800005616321846041600838FEF7DDFC002888
:1043900001D0FCF73BFE01200003079007A9144859
:1043A000FEF79CFD002801D0FCF730FE1048FEF718
:1043B00018FF002801D0FCF729FE20200B900BA944
:1043C0000D950B48FEF78AFC002801D0FCF71EFE75
:1043D0003120019000940294042269460494044818
:1043E000FEF7C8FE002801D0FCF710FE0FB030BD6C
:1043F000CC02002030B58FB00024079408940994B3
:104400000A940B940C941C2168460D94FBF7E3FE70
:1044100029492A4812C00460846063210461416014
:104420000838FEF791FC002801D0FCF7EFFD0120D1
:104430000003079007A92148FEF750FD002801D08E
:10444000FCF7E4FD1D48FEF787FF002801D0FCF7CC
:10445000DDFD0B940BA919480D94FEF73FFC0028D5
:1044600001D0FCF7D3FD602000903220042501909C
:1044700000226946049502941048FEF7D9FE0028F0
:1044800001D0FCF7C3FD082269460C480494FEF7EE
:10449000CFFE002801D0FCF7B9FD0C226946074881
:1044A0000495FEF7C5FE002801D0FCF7AFFD0348D8
:1044B000FEF72AFE0FB030BD0004004018030020B4
:1044C00010B50D480B490160E1214902416000210E
:1044D0008160C16001618161C16101620C22416240
:1044E00042618162FFF7BEF8002801D0FCF78EFD23
:1044F00010BD000000440040B0030020FEE71CB5E2
:104500005478009401931378526800F01EF91CBD92
:1045100010B52F4C002240212046FDF79EFD64205F
:10452000FDF7D4FB012240212046FDF796FDAE2089
:1045300000F098F8A82000F095F87F2000F092F89D
:10454000D52000F08FF8502000F08CF8214840680A
:10455000B42838D0C02000F085F8A02000F082F800
:10456000D32000F07FF8002000F07CF8DC2000F081
:1045700079F8002000F076F8202000F073F8812010
:1045800000F070F8DF2000F06DF8A42000F06AF869
:10459000A62000F067F8AD2000F064F88A2000F053
:1045A00061F8D92000F05EF8222000F05BF8DB20F3
:1045B00000F058F8352000F055F800F00DF8AF2065
:1045C00000F050F810BDC82000F04CF8A120C5E75D
:1045D000000400504400002010B50121C902024827
:1045E000FBF7F9FD10BD00007D0500203CB51C78EF
:1045F000059D00940195E41D5D78E408203A54433C
:104600002A465B686243D2182B4600F09EF83CBDF8
:10461000FFB581B01E46154604460A9F09E03346A1
:10462000009720460299FFF7E1FF70780019C4B2A5
:104630006D1C2A78002AF2D105B0F0BD70B50C4689
:104640000546012220210548FDF707FD7D23DB00FB
:10465000224629460248FEF775FA70BD0004005054
:104660006802002070B50B4D044600222021284628
:10467000FDF7F3FC08487D2304700146DB000122AE
:104680000648FEF75FFA012220212846FDF7E5FCE7
:1046900070BD0000000400504400002068020020AB
:1046A000FFB582B0CE084C070720640F009010467B
:1046B0001546A0401F460193C2B2234630460299D8
:1046C00000F088F8002C0CD0601EC0B200900820CA
:1046D000001B2A46C2400197701C0023029900F07B
:1046E00079F806B0F0BDFFB582B04D0714460598C5
:1046F000CE086D0F4A072818520F214691400B9F94
:10470000082816D90720CAB200902B4601973046D8
:10471000029900F05FF80598224640190938C0B2A6
:1047200000900820401BC240701C01970023029992
:1047300007E0401EC0B2CAB200902B460197304637
:10474000029900F047F806B0F0BDFFB583B00C98B1
:104750001D46C7084007400F002601901AE0059843
:104760000024801902900398801900900EE02046E2
:1047700002996843425C0498E1000818C1B20098AD
:104780000D9BC0B2FFF78CFF641CE4B2BC42EED3B9
:10479000761CF6B2AE42E2D30198002817D0284624
:1047A0007843064604990024F80047180DE00D9858
:1047B000009005983119425C0398F9B20019C0B213
:1047C000019BFFF790FF641CE4B2AC42EFD307B04B
:1047D000F0BD0000F0B5059E069C10281AD2802975
:1047E00018D2002C01D0D243D2B2FF252C46761C21
:1047F000B4400827FB1ADD402646C701144307488A
:10480000B2433818475C2C43034BAA4327405A70E5
:1048100017434754F0BD0000440000207D050020F0
:1048200070B5104D402000242E4628708136204659
:10483000B030C0B2FFF716FF0220FFF713FF1020C1
:10484000FFF710FFE00181198022681CFBF7AAFC2A
:1048500081210448FFF7F2FE641CE4B2102CE6D379
:1048600070BD0000FC04002010B500210348FEF7D5
:104870009BFD0C210148FEF797FD10BD1803002099
:10488000002907D0042907D0082907D00C2900D116
:10489000026470474263704782637047C263704727
:1048A00010B508210148FEF77FFD10BD1803002058
:1048B0007047F8B50F460B46154600920321044693
:1048C0000022C90200F01CF82026002812D13B4625
:1048D000002280212046009500F07EF8002809D1B2
:1048E00003213B46002249022046009500F008F8CB
:1048F000002803D0206E304320660320F8BD00005E
:10490000FFB585B00E460446002069460E9D174649
:104910000871FDF7A9FB411B0898451AFDF7A4FB98
:104920000390206823210C3002902A4800684843F5
:10493000000D684346E003204002864206D1002F66
:1049400004D1029801786846017100790898401CEA
:1049500039D0FDF789FB0399401AA84205D2002DF2
:1049600003D0009800282BD02BE020684168E0227B
:10497000914341606068C11FFD390CD10121A068DD
:10498000C903884202D04911884204D120680168D5
:104990004022914301600120A16A4003814207D176
:1049A00021680A6882430A6021680A6802430A6033
:1049B00001204034607700202077032009B0F0BD4B
:1049C0000025401E0090206880683040B842B2D177
:1049D0000020F3E70C000020FFB581B01E4604461E
:1049E0000A9DFDF741FB401B351AFDF73DFB0746CD
:1049F000264800684001000D684339E0701C38D03B
:104A0000FDF732FBC01BA84205D2002D03D0009851
:104A100000282BD02BE020684168E02291434160C0
:104A20006068C11FFD390CD10121A068C90388420B
:104A300002D04911884204D1206801684022914384
:104A400001600120A16A4003814207D121680A6800
:104A500082430A6021680A6802430A6001204034E8
:104A6000607700202077032005B0F0BD0025401EB0
:104A70000090206881680298884305D0002103983F
:104A80008142BBD10020EFE70121F8E70C000020B4
:104A9000704710B5FDF70CFC10BD30B593B0382150
:104AA0006846FBF798FB002501200E950F951095A1
:104AB00040021195FDF772FC0224E001039000947E
:104AC0004020059008200A9080030B900320079453
:104AD00040060C900894200704950D9009956846AF
:104AE000FDF788FD002809D107200EA931C1022158
:104AF0000EA81195FDF778FC002801D0FCF786FA86
:104B000013B030BD7047000010B50248FEF758FAE8
:104B100010BD00006403002010B50248FEF750FAF3
:104B200010BD000018030020F0B502681E4B0124E0
:104B3000A4071E4D984203D0A04201D0A84203D141
:104B40007026B2434E683243194E1A4F98420AD02B
:104B5000A04208D0A84206D0174CA04203D0B042D1
:104B600001D0B84204D103242402A243CC682243DA
:104B70008024A2434C69224302608A68C2620A68A8
:104B80008262984203D0B04201D0B84201D1096993
:104B90000163012141610169C90703D00169490825
:104BA00049000161F0BD0000002C014000040040FC
:104BB00000440140004801400020004010B5CB06F1
:104BC000DB0E0121046A99408C430462016A9A4019
:104BD0001143016210BD30B58468FF252D021B0210
:104BE0001343AC430B432343836030BD8268034BC4
:104BF0001A400A4307210A43826070478FFFCFFFA4
:104C0000F0B5056A026A520852000262436882697E
:104C1000164C184E224092080C689200144302224F
:104C200095438A682A43124DA84204D0B04202D06C
:104C3000114FB84206D10827BA43CF681743042260
:104C400097433A46A84204D0B04202D00A4DA84247
:104C500006D103252D02AB434D691D438B692B43C0
:104C600043608461496841630262F0BD8FFFFEFFCB
:104C7000002C0140004401400048014070B5046A26
:104C8000026A10239A43026243688269164D2A40E1
:104C900003252D02AA430D682D02154320229443BB
:104CA0008A6812012243114CA04207D18024A243FA
:104CB000CC68402624012243B24305E00C4CA042BC
:104CC00002D00C4CA04208D10324A402A3434C6997
:104CD000A4001C438B699B002343436085614968A2
:104CE0008163026270BD0000FF8FFFFE002C014057
:104CF000004401400048014070B5046A026AFF2385
:104D000001339A4302624368C269164D2A409208F1
:104D10000D68920015430122520294438A681202E0
:104D20002243114CA04208D11446CA68C614B443A9
:104D3000120222430415A24305E00C4CA04202D00B
:104D40000B4CA04208D103242403A3434C69240143
:104D50001C438B691B0123434360C5614968C163E0
:104D6000026270BD8FFFFEFF002C01400044014035
:104D70000048014030B5046A026A01231B039A43CC
:104D800002624368C269114D2A4003252D02AA43DD
:104D90000D682D0215430122520394438A681203C1
:104DA00022430B4CA04205D00A4CA04202D00A4C30
:104DB000A04205D10124A403A3434C69A4012343C9
:104DC0004360C56149680164026230BDFF8FFFFE28
:104DD000002C0140004401400048014070B5036AC6
:104DE000026A01263604B24302624268456D0E4CE7
:104DF00025400C682C437500AB430D892D041D43E1
:104E00000A4B984205D00A4B984202D0094B98426F
:104E100003D14B69B2431B021A434260446549689F
:104E20008165056270BD00008FFFFEFF002C014010
:104E3000004401400048014070B5046A026A012341
:104E40001B059A4302624268436D104D2B400D686A
:104E50002D021D4301235B059C430B891E050C4B52
:104E60002643984205D00B4B984202D00A4B9842F9
:104E700006D101241346A4044A69A34392021A43AB
:104E8000426045654968C165066270BDFF8FFFFEDF
:104E9000002C0140004401400048014030B5036A45
:104EA000046A6408640004628469F025AC4312015A
:104EB00022430A24A3430B438261036230BD30B511
:104EC000046A036A1025AB43036283690F252D032F
:104ED0001203AB431A43A0239C430901214382617F
:104EE000016230BD10B5018D090707D501684A6818
:104EF0000123DB039A43836B1A434A60018DC90780
:104F000007D001684A6801235B049A43C36A1A43C5
:104F10004A60018D890707D501684A6801231B048F
:104F20009A43036B1A434A60018D490707D501680C
:104F30004A6801239B049A43436B1A434A60018DDC
:104F4000C90607D50268916801231B039943C36B07
:104F500019439160018D890607D501688A6801238C
:104F60005B039A43036C1A438A60018D490612D58C
:104F700003685A6801210905446C8A4322435A6038
:104F8000426C8A4207D10268516803235B0599434A
:104F9000836C19435160018D090607D501684A6881
:104FA0000123DB04C06C9A4302434A6010BD000039
:104FB000FEB505460026803504462E61FDF754F8FF
:104FC00001902068006820270007002817DA25488C
:104FD0000090002239042046019B00F0EDF90028E2
:104FE0000DD0EFF31080012181F3108821680A6849
:104FF00080239A430A6080F31088AF6028E020681D
:105000000068400727D51748009001210022890534
:105010002046019B00F0D0F900281CD0EFF310804F
:10502000012181F3108821680A68FF2321339A4304
:105030000A6080F31088EFF31080012181F310885B
:1050400021688A68520852008A6080F31088EF60F5
:105050002E710320FEBDAF60EF60E66626672E71FD
:105060000020FEBDFFFFFF01F8B5846A20468030B6
:1050700081680546C6682068806800270006002809
:1050800006DA212904D156200753204600F070F893
:1050900020688068400606D5222E04D15E20075382
:1050A000204600F033F82869102108432861204683
:1050B000FEF7D7FAF8BD10B501460968806A09689D
:1050C00089061BD4002256210A52EFF310810122D7
:1050D00082F31088026893688024A343936081F36D
:1050E0001088EFF31081012282F3108800680268B3
:1050F00040231A43026081F3108810BDFEF70AFCBA
:1051000010BD10B5806AFEF706FC10BD10B5EFF3B8
:105110001081012282F3108802681368FF24213471
:10512000A343136081F31088EFF31081012282F30F
:105130001088026893680D4C2340936081F31088B7
:10514000C16E01290BD1EFF31081012282F3108887
:10515000026813681024A343136081F3108820228F
:105160008C210A500021C166416710BDFEFFFFEF90
:1051700010B5EFF31081012282F3108802681368E2
:10518000C024A343136081F31088EFF31081012240
:1051900082F31088026893680124E405A3439360B6
:1051A00081F3108820218030816010BDF8B504465D
:1051B000016880682369E5691843636900262B4309
:1051C0001843734A0B68734D2B4003430B602068F0
:1051D000416803231B039943E36819434160216835
:1051E000A069914201D0236A18438B686A4D2B4015
:1051F00003438B602068C16A636A09090901194386
:10520000C1626649236866488B420AD140698007BB
:10521000800F09D001282CD0022828D0032816D1CD
:1052200013E060498B4201D1002111E093420ED17D
:1052300041690320800201400AD001208002091A3E
:1052400017D0091A13D0814201D1082100E01021A2
:105250000120554D554FC00393423DD100290AD03E
:10526000022911D0042909D0082934D10BE00221E8
:10527000EEE70421ECE7FDF763F901E0FDF774F9CF
:10528000050001D179E00546606A4000395A284698
:105290000091FAF72DFF676879007918814267D885
:1052A0003903814264D3002328461946009AFAF74D
:1052B00049FF020E09020302780811431818002260
:1052C00051413A460023FAF73DFF03210902384ACB
:1052D000411A91424FD94BE0E269824227D100291D
:1052E00006D0022907D0042907D0082940D108E0B8
:1052F000FDF726F903E0284603E0FDF735F900281D
:105300003BD0616A4900795AFAF7F2FE61684000C1
:105310004A088018FAF7ECFE0146264A10399142F5
:1053200026D8511C01400007400F084323E0002904
:1053300006D0022907D0042907D0082918D108E08F
:10534000FDF7FEF803E0284603E0FDF70DF900281D
:1053500013D0616A4900795AFAF7CAFE61684A08AF
:105360008018FAF7C5FE0146124A1039914201D958
:10537000012602E080B22168C86020460121403049
:105380004185018500206067A0673046F8BD0000B8
:1053900000800040F369FFCFFFF4FF1100380140A7
:1053A00040100240004400400024F40094630008D0
:1053B000FFFC0F00EFFF0000FFB581B005460E4671
:1053C000044680350A9F32E0781C30D0FCF74CFE52
:1053D0000499401AB84218D8002F16D020680168E6
:1053E000490724D5802E22D0402E20D0C169C94340
:1053F00009070CD4082606622046FFF787FE2E61B7
:1054000000202871012005B0F0BD0320FBE7C06932
:10541000C04300050BD401202168C0020862204669
:10542000FFF774FE2020286100202871EDE7206836
:10543000C1693046884305D0002103988142C3D01A
:105440000020E0E70121F8E710B50920FCF786FF0E
:105450000548FDF7DBFC0548FBF75CFE0322044929
:105460000248FCF72DFA10BDCC02002054010020A8
:1054700070000020F8B5174D0746A888FBF742F9E1
:1054800002460B4600201449FBF79EF80022134BFE
:10549000FBF732F8FBF7A4F90024FBF78DF90E4671
:1054A00005460C486100405AFBF72CF900220B4BD3
:1054B000FBF78AF82A463346FBF71EF80022084B12
:1054C000FBF782F8FBF78CF9A100641C7850032CE1
:1054D000E7DBF8BD7000002000C0924000FEAF4046
:1054E00000408F400FB410B503A9044B044A029842
:1054F00000F020F910BC08BC04B01847CD5E0008CD
:10550000500100200FB41CB50A46521E01920090B3
:1055100007A9064B6A46069800F00CF9009A00218C
:1055200011701CBC08BC04B0184700006D5E000878
:105530002021020C01D010211046020A01D0104691
:105540000839020901D01046091F820801D010460F
:10555000891E420801D0881E7047081A704730B46F
:105560007446641E2578641CAB4200D21D46635D00
:105570005B00E31830BC18478307FF22DB0E9A401C
:105580008907090E9940002808DB830809489B0019
:105590001B18186890430843186070470007000FF5
:1055A0000838830804489B001B18D86990430843B7
:1055B000D861704700E400E000ED00E002E008C8B8
:1055C000121F08C1002AFAD170477047002001E07D
:1055D00001C1121F002AFBD170470000F0B51FB4B3
:1055E00084B007980699020D014314D04A484B49EC
:1055F0001018484305140F9801280E981CD0281A3B
:10560000401C0024464E4749009401910290002816
:1056100014DA474227E00F98012443A3012808D059
:10562000002104980F9A84600360C260416009B051
:10563000F0BD0E98C143F4E74042E2E7074612E0AE
:10564000F80707D02246334601990098FAF754FF2D
:10565000019100902246334610461946FAF74CFF56
:1056600004460E467F10002FEAD10298019B0028C5
:10567000009A0799069802DAFAF73EFF01E0FAF776
:10568000A3FF04460E460022284BFBF7B9F903D8C6
:105690000020C043014607E00022254B204631464A
:1056A000FAF778FEFBF78CF9102409E0002C0ADBEE
:1056B0000A220023FAF746FD059B30321A55641E74
:1056C00002460A43F2D11122641C059B121B1C19CD
:1056D0000F9B012B03D0012308430ED10AE008439E
:1056E00004D011200E9000200F9084E70E98151A18
:1056F0006D1E0BE00E98824202DD00236D1C03E05C
:10570000824201DA00236D1E002BEED004980F991F
:105710008260C16030C08AE701FCFFFF104D0000CD
:10572000000024400000F03F300000000000F04383
:105730000000E03FFFB597B00646002518E2252897
:1057400077D100242746FD49049400E00443761CE9
:1057500032780120203A90400842F7D130782A2848
:105760000ED00222307801463039092916D8049922
:105770000A235943303940181443761C0490F1E74A
:10578000189802C804911890002904DA01204003F7
:1057900004434842049002200443761C30782E28AB
:1057A00014D1042004437078761C2A2809D1189853
:1057B000761C80C8189009E00A214F43303FC71972
:1057C000761C3078014630390929F5D930786C28B3
:1057D00010D006DC4C281AD068280ED06A2817D1C1
:1057E00004E0742813D07A2812D110E0012040057B
:1057F00004430CE00121090501E0032109050C43E4
:105800007178814203D1012000052418761C761C92
:105810003078119066280BD013DC58287DD009DC35
:1058200000287BD04528F6D04628F4D047281AD146
:10583000A5E118E0632835D0642870D0652812D11E
:105840009DE170286CD008DC6728F1D069287BD0F6
:105850006E280DD06F2806D1BAE073282ED0752897
:1058600071D0782859D01A9A199990476D1C7EE109
:105870006002400F022809D003280DD00428189890
:1058800001680DD00D60001D189070E11898EA179E
:1058900001680D604A60F6E7189801680D80F2E72C
:1058A0000D70F0E718986A4601781172001D189083
:1058B0000020507202A80090012005E0189802C84C
:1058C000189000200091C04361070DD5002101E030
:1058D0000199491C0191B94212DA8142F8DB009A20
:1058E000515C0029F4D10BE0002101E00199491C31
:1058F00001918142FADB019A0099895C0029F5D176
:10590000019904981A9B471A21463846199A00F0C3
:1059100097FA0199401945180BE04FE02CE113E08C
:105920004EE0009800990078491C00911A9A199944
:1059300090470198401E0190401CF2D12146384604
:105940001A9B199A10E137E00A200021009001917A
:105950006002410F022907D0189A01CA1892C21793
:105960009446032908D00AE01898C01DC108C90050
:1059700005C91891944607E000B2C217944604295D
:1059800002D140B2C1178C4600226146944506DA26
:105990000A460021404291418C462D2102E021051A
:1059A00004D52B216A461173012103E0E10701D0E0
:1059B0002021F7E7029155E00A200AE0102008E0D4
:1059C000102000900021042004430191082703E0E7
:1059D00008200021019100906002410F022907D0A8
:1059E000189A01CA189200229446032908D008E0A8
:1059F0001898C01DC108C90005C91891944603E054
:105A000080B2042900D1C0B200210291210729D51A
:105A10001199702906D0009A1021019B4A401A431F
:105A200005D00EE040216A461173012108E061466D
:105A3000014306D030216A46117311995173022136
:105A40000291009A0821019B4A401A430AD16146FB
:105A5000014301D1610705D530216A461173012147
:105A60007F1E02911199582904D035A10E910DA9DC
:105A70000D910DE037A1F9E76146019B009AFAF715
:105A800061FB0E9B8C469B5C0D9A521E0D9213700F
:105A900061460143F0D10D9805A9081A2030019004
:105AA000600703D501200004844300E0012701982A
:105AB000874201DD381A00E000200199009041186A
:105AC000029809180498401A0490E00306D421466D
:105AD0001A9B199A049800F0B3F94519002706E0BB
